:020000040000FA
:10000000012883168801C03086000730850004303F
:100010009F00831281309F00AD0101308600ED20EA
:10002000A301FF30AC00D820152805192328813002
:100030009F00ED20D4201E08FF3CC920A9002908FC
:10004000643CA2002B2889309F00ED20D4201E089C
:10005000BE20AA00A20022082C06031D5D20220853
:10006000AC002308220603191528230822020318CE
:1000700042283A280A30A4004A20A40B3C28A303B3
:100080005D2015280A30A4005120A40B4428A30A9F
:100090005D201528AD0A2D08033958208600F2206E
:1000A0000800AD032D08033958208600F22008000F
:1000B000820701340234043408348030DF204D30AC
:1000C000E6204F30E6204430E6202030E6200519B7
:1000D00072284130E6205530E6205430E6204F307B
:1000E000E6207A284D30E6204130E6204E30E620EA
:1000F0002030E620C030DF20051985284C30E6206E
:100100005530E6205830E6208B284430E620453034
:10011000E6205330E6202030E62005192208051D90
:100120002908A500A1202530E6202030E6202D302A
:10013000E6202030E6202308A500A1202530E62077
:100140000800AC202608303EE6202708303EE62096
:100150002808303EE6200800A601A7012508A800CF
:1001600064302802031CB728A800A60AB0280A3069
:100170002802031C0800A800A70AB728AB00A501A5
:100180003330AB02031CC7281430A507C02825084C
:100190000800AB00A5011930AB02031CD2280A30BD
:1001A000A507CB28250808001F151F19D52808000A
:1001B0003830DF200C30DF200130DF2008008800DD
:1001C0000612861600008612F22008008800061625
:1001D000861600008612F22008003230A000A00B24
:1001E000EF2808000530A000FF30A100A10BF62881
:0601F000A00BF42808003A
:0401F600003400349D
:02400E00713F00
:00000001FF
