:020000040000FA
:10000000012883168801C030860007308500071359
:10001000871704309F001930990018129816831220
:100020009817181681309F00AD01A301FF30AC0076
:10003000A1201A2869200519272881309F002B212B
:100040001E08FA3C031C0030A900A2004A2889308F
:100050009F002B21CC301E020318402899301E022D
:100060000318422866301E020318442833301E024B
:10007000031846280A301E02031848280030492871
:10008000FA304928C8304928963049286430492830
:100090003230A20022082C06031DB7202208AC0033
:1000A0002308220603191A282308220203186128AC
:1000B00059280430AE008E20AE0B5B28A303B72076
:1000C0001A280430AE009520AE0B6328A30AB7208F
:1000D0001A288C1E08001A08AF0007302F060319D3
:1000E0007B2810302F0603197E282F08C039C03A0C
:1000F00003198128080028088A20080027088A2078
:1001000008002F083F39AB000310AB0DAB0D2B08D7
:10011000A20008000C1E8A2899000800AD0A2D08CC
:1001200003399C20860033210800AD032D080339D4
:100130009C208600332108008207013402340434F5
:10014000083433213830A9200C30A9200130A920EF
:100150000800880006128616000086123321080067
:1001600088000616861600008612332108008030AB
:10017000A9204D30B0204F30B0204430B020203086
:10018000B0200519CC284130B0205530B020543073
:10019000B0204F30B020D4284D30B0204130B020B6
:1001A0004E30B0202030B020C030A92005192208E0
:1001B000051D2908ED202530B0202030B02020304A
:1001C000B0200519E8282308FA3C031C0030E92870
:1001D0002308ED202530B0200800AB00FA302B02B8
:1001E000031CFD283130B0203030B0203030B0203A
:1001F0002E30B0203030B02008002030B020A401D4
:100200002B08A5000310A50DA40D0310A50DA40D2A
:10021000A601A701A8016430250203181329A40828
:1002200003191629A403A60AA5000B290A302502E2
:10023000031C1D29A500A70A16292508A8002608C1
:10024000303EB0202708303EB0202E30B0202808A5
:10025000303EB02008001430A000A00B2D291F153F
:100260001F19302908000530A000FF30A100A10BA4
:080270003729A00B3529080015
:04027800003400341A
:02400E00713F00
:00000001FF
